{
  "_format": "hh-sol-artifact-1",
  "contractName": "VotingSystem",
  "sourceName": "contracts/VotingSystem.sol",
  "abi": [
    {
      "inputs": [],
      "stateMutability": "nonpayable",
      "type": "constructor"
    },
    {
      "anonymous": false,
      "inputs": [
        {
          "indexed": false,
          "internalType": "uint256",
          "name": "electionId",
          "type": "uint256"
        },
        {
          "indexed": false,
          "internalType": "string",
          "name": "title",
          "type": "string"
        },
        {
          "indexed": false,
          "internalType": "uint256",
          "name": "startTime",
          "type": "uint256"
        },
        {
          "indexed": false,
          "internalType": "uint256",
          "name": "endTime",
          "type": "uint256"
        }
      ],
      "name": "ElectionCreated",
      "type": "event"
    },
    {
      "anonymous": false,
      "inputs": [
        {
          "indexed": false,
          "internalType": "uint256",
          "name": "electionId",
          "type": "uint256"
        },
        {
          "indexed": false,
          "internalType": "uint256",
          "name": "totalVotes",
          "type": "uint256"
        }
      ],
      "name": "ElectionFinalized",
      "type": "event"
    },
    {
      "anonymous": false,
      "inputs": [
        {
          "indexed": false,
          "internalType": "uint256",
          "name": "electionId",
          "type": "uint256"
        },
        {
          "indexed": false,
          "internalType": "address",
          "name": "voter",
          "type": "address"
        }
      ],
      "name": "VoteCast",
      "type": "event"
    },
    {
      "anonymous": false,
      "inputs": [
        {
          "indexed": false,
          "internalType": "uint256",
          "name": "electionId",
          "type": "uint256"
        },
        {
          "indexed": false,
          "internalType": "address",
          "name": "voter",
          "type": "address"
        }
      ],
      "name": "VoterRegistered",
      "type": "event"
    },
    {
      "inputs": [
        {
          "internalType": "uint256",
          "name": "_electionId",
          "type": "uint256"
        },
        {
          "internalType": "string",
          "name": "_name",
          "type": "string"
        },
        {
          "internalType": "string",
          "name": "_description",
          "type": "string"
        }
      ],
      "name": "addCandidate",
      "outputs": [
        {
          "internalType": "uint256",
          "name": "",
          "type": "uint256"
        }
      ],
      "stateMutability": "nonpayable",
      "type": "function"
    },
    {
      "inputs": [],
      "name": "admin",
      "outputs": [
        {
          "internalType": "address",
          "name": "",
          "type": "address"
        }
      ],
      "stateMutability": "view",
      "type": "function"
    },
    {
      "inputs": [
        {
          "internalType": "uint256",
          "name": "_electionId",
          "type": "uint256"
        },
        {
          "internalType": "uint256",
          "name": "_candidateId",
          "type": "uint256"
        }
      ],
      "name": "castVote",
      "outputs": [],
      "stateMutability": "nonpayable",
      "type": "function"
    },
    {
      "inputs": [
        {
          "internalType": "string",
          "name": "_title",
          "type": "string"
        },
        {
          "internalType": "string",
          "name": "_description",
          "type": "string"
        },
        {
          "internalType": "uint256",
          "name": "_startTime",
          "type": "uint256"
        },
        {
          "internalType": "uint256",
          "name": "_endTime",
          "type": "uint256"
        }
      ],
      "name": "createElection",
      "outputs": [
        {
          "internalType": "uint256",
          "name": "",
          "type": "uint256"
        }
      ],
      "stateMutability": "nonpayable",
      "type": "function"
    },
    {
      "inputs": [],
      "name": "electionCount",
      "outputs": [
        {
          "internalType": "uint256",
          "name": "",
          "type": "uint256"
        }
      ],
      "stateMutability": "view",
      "type": "function"
    },
    {
      "inputs": [
        {
          "internalType": "uint256",
          "name": "",
          "type": "uint256"
        }
      ],
      "name": "elections",
      "outputs": [
        {
          "internalType": "string",
          "name": "title",
          "type": "string"
        },
        {
          "internalType": "string",
          "name": "description",
          "type": "string"
        },
        {
          "internalType": "uint256",
          "name": "startTime",
          "type": "uint256"
        },
        {
          "internalType": "uint256",
          "name": "endTime",
          "type": "uint256"
        },
        {
          "internalType": "bool",
          "name": "isActive",
          "type": "bool"
        },
        {
          "internalType": "uint256",
          "name": "candidateCount",
          "type": "uint256"
        },
        {
          "internalType": "uint256",
          "name": "totalVotes",
          "type": "uint256"
        },
        {
          "internalType": "bool",
          "name": "resultsFinalized",
          "type": "bool"
        }
      ],
      "stateMutability": "view",
      "type": "function"
    },
    {
      "inputs": [
        {
          "internalType": "uint256",
          "name": "_electionId",
          "type": "uint256"
        }
      ],
      "name": "endElection",
      "outputs": [],
      "stateMutability": "nonpayable",
      "type": "function"
    },
    {
      "inputs": [
        {
          "internalType": "uint256",
          "name": "_electionId",
          "type": "uint256"
        }
      ],
      "name": "finalizeResults",
      "outputs": [],
      "stateMutability": "nonpayable",
      "type": "function"
    },
    {
      "inputs": [
        {
          "internalType": "uint256",
          "name": "_electionId",
          "type": "uint256"
        },
        {
          "internalType": "uint256",
          "name": "_candidateId",
          "type": "uint256"
        }
      ],
      "name": "getCandidate",
      "outputs": [
        {
          "internalType": "string",
          "name": "",
          "type": "string"
        },
        {
          "internalType": "string",
          "name": "",
          "type": "string"
        },
        {
          "internalType": "uint256",
          "name": "",
          "type": "uint256"
        }
      ],
      "stateMutability": "view",
      "type": "function"
    },
    {
      "inputs": [
        {
          "internalType": "uint256",
          "name": "_electionId",
          "type": "uint256"
        }
      ],
      "name": "getElectionResults",
      "outputs": [
        {
          "internalType": "uint256[]",
          "name": "",
          "type": "uint256[]"
        }
      ],
      "stateMutability": "view",
      "type": "function"
    },
    {
      "inputs": [
        {
          "internalType": "uint256",
          "name": "_electionId",
          "type": "uint256"
        }
      ],
      "name": "getElectionSummary",
      "outputs": [
        {
          "components": [
            {
              "internalType": "uint256",
              "name": "id",
              "type": "uint256"
            },
            {
              "internalType": "string",
              "name": "title",
              "type": "string"
            },
            {
              "internalType": "string",
              "name": "description",
              "type": "string"
            },
            {
              "internalType": "uint256",
              "name": "startTime",
              "type": "uint256"
            },
            {
              "internalType": "uint256",
              "name": "endTime",
              "type": "uint256"
            },
            {
              "internalType": "bool",
              "name": "isActive",
              "type": "bool"
            },
            {
              "internalType": "uint256",
              "name": "candidateCount",
              "type": "uint256"
            },
            {
              "internalType": "uint256",
              "name": "totalVotes",
              "type": "uint256"
            },
            {
              "internalType": "bool",
              "name": "resultsFinalized",
              "type": "bool"
            }
          ],
          "internalType": "struct VotingSystem.ElectionSummary",
          "name": "",
          "type": "tuple"
        }
      ],
      "stateMutability": "view",
      "type": "function"
    },
    {
      "inputs": [
        {
          "internalType": "uint256",
          "name": "_electionId",
          "type": "uint256"
        }
      ],
      "name": "getVoterCount",
      "outputs": [
        {
          "internalType": "uint256",
          "name": "",
          "type": "uint256"
        }
      ],
      "stateMutability": "view",
      "type": "function"
    },
    {
      "inputs": [
        {
          "internalType": "uint256",
          "name": "_electionId",
          "type": "uint256"
        },
        {
          "internalType": "address",
          "name": "_voter",
          "type": "address"
        }
      ],
      "name": "getVoterStatus",
      "outputs": [
        {
          "internalType": "bool",
          "name": "",
          "type": "bool"
        },
        {
          "internalType": "bool",
          "name": "",
          "type": "bool"
        }
      ],
      "stateMutability": "view",
      "type": "function"
    },
    {
      "inputs": [
        {
          "internalType": "uint256",
          "name": "_electionId",
          "type": "uint256"
        },
        {
          "internalType": "address",
          "name": "_voter",
          "type": "address"
        },
        {
          "internalType": "bytes32",
          "name": "_voterHash",
          "type": "bytes32"
        }
      ],
      "name": "registerVoter",
      "outputs": [],
      "stateMutability": "nonpayable",
      "type": "function"
    }
  ],
  "bytecode": "0x608060405234801561001057600080fd5b5033600260006101000a81548173ffffffffffffffffffffffffffffffffffffffff021916908373ffffffffffffffffffffffffffffffffffffffff1602179055506000600181905550612d57806100696000396000f3fe608060405234801561001057600080fd5b50600436106100ea5760003560e01c8063997d28301161008c578063e6c62efc11610066578063e6c62efc14610277578063e8ededa6146102a7578063e92e5c34146102d7578063f851a44014610307576100ea565b8063997d28301461020d5780639c98bcbb1461022b578063d9148f7314610247576100ea565b80634bd46448116100c85780634bd46448146101435780635e6fef01146101755780637ad36e84146101ac578063942f56bd146101dc576100ea565b80631978e0d3146100ef5780631d8f41e81461010b5780632c0a3f8914610127575b600080fd5b61010960048036038101906101049190611ab8565b610325565b005b61012560048036038101906101209190611b79565b6104fc565b005b610141600480360381019061013c9190611bcc565b6107fa565b005b61015d60048036038101906101589190611bcc565b610c5f565b60405161016c93929190611cab565b60405180910390f35b61018f600480360381019061018a9190611ab8565b610e5e565b6040516101a3989796959493929190611d0b565b60405180910390f35b6101c660048036038101906101c19190611ecc565b610fd0565b6040516101d39190611f6b565b60405180910390f35b6101f660048036038101906101f19190611f86565b6111e9565b604051610204929190611fc6565b60405180910390f35b6102156112b8565b6040516102229190611f6b565b60405180910390f35b61024560048036038101906102409190611ab8565b6112be565b005b610261600480360381019061025c9190611ab8565b6113df565b60405161026e9190612123565b60405180910390f35b610291600480360381019061028c9190612145565b6115d9565b60405161029e9190611f6b565b60405180910390f35b6102c160048036038101906102bc9190611ab8565b6117df565b6040516102ce919061227f565b60405180910390f35b6102f160048036038101906102ec9190611ab8565b611990565b6040516102fe9190611f6b565b60405180910390f35b61030f6119f8565b60405161031c91906122b0565b60405180910390f35b600260009054906101000a900473ffffffffffffffffffffffffffffffffffffffff1673ffffffffffffffffffffffffffffffffffffffff163373ffffffffffffffffffffffffffffffffffffffff16146103b5576040517f08c379a00000000000000000000000000000000000000000000000000000000081526004016103ac9061233d565b60405180910390fd5b8060015481106103fa576040517f08c379a00000000000000000000000000000000000000000000000000000000081526004016103f1906123a9565b60405180910390fd5b60008083815260200190815260200160002060040160009054906101000a900460ff16158061043d57506000808381526020019081526020016000206003015442115b61047c576040517f08c379a000000000000000000000000000000000000000000000000000000000815260040161047390612415565b60405180910390fd5b6001600080848152602001908152602001600020600a0160006101000a81548160ff0219169083151502179055507f67d82b1b182df045662f3a6bad97695da6985ba731e94610accb92fb60ad95a282600080858152602001908152602001600020600701546040516104f0929190612435565b60405180910390a15050565b600260009054906101000a900473ffffffffffffffffffffffffffffffffffffffff1673ffffffffffffffffffffffffffffffffffffffff163373ffffffffffffffffffffffffffffffffffffffff161461058c576040517f08c379a00000000000000000000000000000000000000000000000000000000081526004016105839061233d565b60405180910390fd5b8260015481106105d1576040517f08c379a00000000000000000000000000000000000000000000000000000000081526004016105c8906123a9565b60405180910390fd5b60008085815260200190815260200160002060080160008473ffffffffffffffffffffffffffffffffffffffff1673ffffffffffffffffffffffffffffffffffffffff16815260200190815260200160002060000160009054906101000a900460ff1615610674576040517f08c379a000000000000000000000000000000000000000000000000000000000815260040161066b906124aa565b60405180910390fd5b6040518060800160405280600115158152602001600015158152602001600081526020018381525060008086815260200190815260200160002060080160008573ffffffffffffffffffffffffffffffffffffffff1673ffffffffffffffffffffffffffffffffffffffff16815260200190815260200160002060008201518160000160006101000a81548160ff02191690831515021790555060208201518160000160016101000a81548160ff0219169083151502179055506040820151816001015560608201518160020155905050600080858152602001908152602001600020600901839080600181540180825580915050600190039060005260206000200160009091909190916101000a81548173ffffffffffffffffffffffffffffffffffffffff021916908373ffffffffffffffffffffffffffffffffffffffff1602179055507ff45b8429c36d478f9a6d081c4811a819b98aa5b608588bed9d406405cf28247384846040516107ec9291906124ca565b60405180910390a150505050565b81600154811061083f576040517f08c379a0000000000000000000000000000000000000000000000000000000008152600401610836906123a9565b60405180910390fd5b8260008082815260200190815260200160002060040160009054906101000a900460ff166108a2576040517f08c379a00000000000000000000000000000000000000000000000000000000081526004016108999061253f565b60405180910390fd5b600080828152602001908152602001600020600201544210156108fa576040517f08c379a00000000000000000000000000000000000000000000000000000000081526004016108f1906125ab565b60405180910390fd5b60008082815260200190815260200160002060030154421115610952576040517f08c379a000000000000000000000000000000000000000000000000000000000815260040161094990612617565b60405180910390fd5b60008085815260200190815260200160002060080160003373ffffffffffffffffffffffffffffffffffffffff1673ffffffffffffffffffffffffffffffffffffffff16815260200190815260200160002060000160009054906101000a900460ff166109f4576040517f08c379a00000000000000000000000000000000000000000000000000000000081526004016109eb90612683565b60405180910390fd5b60008085815260200190815260200160002060080160003373ffffffffffffffffffffffffffffffffffffffff1673ffffffffffffffffffffffffffffffffffffffff16815260200190815260200160002060000160019054906101000a900460ff1615610a97576040517f08c379a0000000000000000000000000000000000000000000000000000000008152600401610a8e906126ef565b60405180910390fd5b600080858152602001908152602001600020600601548310610aee576040517f08c379a0000000000000000000000000000000000000000000000000000000008152600401610ae59061275b565b60405180910390fd5b600160008086815260200190815260200160002060080160003373ffffffffffffffffffffffffffffffffffffffff1673ffffffffffffffffffffffffffffffffffffffff16815260200190815260200160002060000160016101000a81548160ff0219169083151502179055508260008086815260200190815260200160002060080160003373ffffffffffffffffffffffffffffffffffffffff1673ffffffffffffffffffffffffffffffffffffffff1681526020019081526020016000206001018190555060008085815260200190815260200160002060050160008481526020019081526020016000206002016000815480929190610bf0906127aa565b91905055506000808581526020019081526020016000206007016000815480929190610c1b906127aa565b91905055507ff1003b73c437642c0460aee9cd9628b0b8c447b66e6c7c905531b9c644214a118433604051610c519291906124ca565b60405180910390a150505050565b6060806000846001548110610ca9576040517f08c379a0000000000000000000000000000000000000000000000000000000008152600401610ca0906123a9565b60405180910390fd5b600080878152602001908152602001600020600601548510610d00576040517f08c379a0000000000000000000000000000000000000000000000000000000008152600401610cf79061275b565b60405180910390fd5b60008060008881526020019081526020016000206005016000878152602001908152602001600020905080600001816001018260020154828054610d4390612821565b80601f0160208091040260200160405190810160405280929190818152602001828054610d6f90612821565b8015610dbc5780601f10610d9157610100808354040283529160200191610dbc565b820191906000526020600020905b815481529060010190602001808311610d9f57829003601f168201915b50505050509250818054610dcf90612821565b80601f0160208091040260200160405190810160405280929190818152602001828054610dfb90612821565b8015610e485780601f10610e1d57610100808354040283529160200191610e48565b820191906000526020600020905b815481529060010190602001808311610e2b57829003601f168201915b5050505050915094509450945050509250925092565b6000602052806000526040600020600091509050806000018054610e8190612821565b80601f0160208091040260200160405190810160405280929190818152602001828054610ead90612821565b8015610efa5780601f10610ecf57610100808354040283529160200191610efa565b820191906000526020600020905b815481529060010190602001808311610edd57829003601f168201915b505050505090806001018054610f0f90612821565b80601f0160208091040260200160405190810160405280929190818152602001828054610f3b90612821565b8015610f885780601f10610f5d57610100808354040283529160200191610f88565b820191906000526020600020905b815481529060010190602001808311610f6b57829003601f168201915b5050505050908060020154908060030154908060040160009054906101000a900460ff169080600601549080600701549080600a0160009054906101000a900460ff16905088565b6000600260009054906101000a900473ffffffffffffffffffffffffffffffffffffffff1673ffffffffffffffffffffffffffffffffffffffff163373ffffffffffffffffffffffffffffffffffffffff1614611062576040517f08c379a00000000000000000000000000000000000000000000000000000000081526004016110599061233d565b60405180910390fd5b4283116110a4576040517f08c379a000000000000000000000000000000000000000000000000000000000815260040161109b9061289e565b60405180910390fd5b8282116110e6576040517f08c379a00000000000000000000000000000000000000000000000000000000081526004016110dd90612930565b60405180910390fd5b6000600154905060008060008381526020019081526020016000209050868160000190816111149190612afc565b50858160010190816111269190612afc565b5084816002018190555083816003018190555060018160040160006101000a81548160ff0219169083151502179055506000816006018190555060008160070181905550600081600a0160006101000a81548160ff0219169083151502179055506001600081548092919061119a906127aa565b91905055507fe7a0aae5d733e07e246dea86213a1ac1b0aa8554bde889bb75c12752f44e53d9828887876040516111d49493929190612bce565b60405180910390a18192505050949350505050565b600080836001548110611231576040517f08c379a0000000000000000000000000000000000000000000000000000000008152600401611228906123a9565b60405180910390fd5b600080600087815260200190815260200160002060080160008673ffffffffffffffffffffffffffffffffffffffff1673ffffffffffffffffffffffffffffffffffffffff16815260200190815260200160002090508060000160009054906101000a900460ff168160000160019054906101000a900460ff169350935050509250929050565b60015481565b600260009054906101000a900473ffffffffffffffffffffffffffffffffffffffff1673ffffffffffffffffffffffffffffffffffffffff163373ffffffffffffffffffffffffffffffffffffffff161461134e576040517f08c379a00000000000000000000000000000000000000000000000000000000081526004016113459061233d565b60405180910390fd5b806001548110611393576040517f08c379a000000000000000000000000000000000000000000000000000000000815260040161138a906123a9565b60405180910390fd5b600080600084815260200190815260200160002060040160006101000a81548160ff02191690831515021790555042600080848152602001908152602001600020600301819055505050565b6113e7611a1e565b81600154811061142c576040517f08c379a0000000000000000000000000000000000000000000000000000000008152600401611423906123a9565b60405180910390fd5b6000806000858152602001908152602001600020905060405180610120016040528085815260200182600001805461146390612821565b80601f016020809104026020016040519081016040528092919081815260200182805461148f90612821565b80156114dc5780601f106114b1576101008083540402835291602001916114dc565b820191906000526020600020905b8154815290600101906020018083116114bf57829003601f168201915b505050505081526020018260010180546114f590612821565b80601f016020809104026020016040519081016040528092919081815260200182805461152190612821565b801561156e5780601f106115435761010080835404028352916020019161156e565b820191906000526020600020905b81548152906001019060200180831161155157829003601f168201915b5050505050815260200182600201548152602001826003015481526020018260040160009054906101000a900460ff1615158152602001826006015481526020018260070154815260200182600a0160009054906101000a900460ff16151581525092505050919050565b6000600260009054906101000a900473ffffffffffffffffffffffffffffffffffffffff1673ffffffffffffffffffffffffffffffffffffffff163373ffffffffffffffffffffffffffffffffffffffff161461166b576040517f08c379a00000000000000000000000000000000000000000000000000000000081526004016116629061233d565b60405180910390fd5b8360015481106116b0576040517f08c379a00000000000000000000000000000000000000000000000000000000081526004016116a7906123a9565b60405180910390fd5b600080868152602001908152602001600020600a0160009054906101000a900460ff1615611713576040517f08c379a000000000000000000000000000000000000000000000000000000000815260040161170a90612c66565b60405180910390fd5b600080600087815260200190815260200160002060060154905060405180606001604052808681526020018581526020016000815250600080888152602001908152602001600020600501600083815260200190815260200160002060008201518160000190816117849190612afc565b50602082015181600101908161179a9190612afc565b506040820151816002015590505060008087815260200190815260200160002060060160008154809291906117ce906127aa565b919050555080925050509392505050565b6060816001548110611826576040517f08c379a000000000000000000000000000000000000000000000000000000000815260040161181d906123a9565b60405180910390fd5b600080848152602001908152602001600020600a0160009054906101000a900460ff168061186857506000808481526020019081526020016000206003015442115b6118a7576040517f08c379a000000000000000000000000000000000000000000000000000000000815260040161189e90612cd2565b60405180910390fd5b60008060008581526020019081526020016000206006015467ffffffffffffffff8111156118d8576118d7611da1565b5b6040519080825280602002602001820160405280156119065781602001602082028036833780820191505090505b50905060005b600080868152602001908152602001600020600601548110156119855760008086815260200190815260200160002060050160008281526020019081526020016000206002015482828151811061196657611965612cf2565b5b602002602001018181525050808061197d906127aa565b91505061190c565b508092505050919050565b60008160015481106119d7576040517f08c379a00000000000000000000000000000000000000000000000000000000081526004016119ce906123a9565b60405180910390fd5b60008084815260200190815260200160002060090180549050915050919050565b600260009054906101000a900473ffffffffffffffffffffffffffffffffffffffff1681565b604051806101200160405280600081526020016060815260200160608152602001600081526020016000815260200160001515815260200160008152602001600081526020016000151581525090565b6000604051905090565b600080fd5b600080fd5b6000819050919050565b611a9581611a82565b8114611aa057600080fd5b50565b600081359050611ab281611a8c565b92915050565b600060208284031215611ace57611acd611a78565b5b6000611adc84828501611aa3565b91505092915050565b600073ffffffffffffffffffffffffffffffffffffffff82169050919050565b6000611b1082611ae5565b9050919050565b611b2081611b05565b8114611b2b57600080fd5b50565b600081359050611b3d81611b17565b92915050565b6000819050919050565b611b5681611b43565b8114611b6157600080fd5b50565b600081359050611b7381611b4d565b92915050565b600080600060608486031215611b9257611b91611a78565b5b6000611ba086828701611aa3565b9350506020611bb186828701611b2e565b9250506040611bc286828701611b64565b9150509250925092565b60008060408385031215611be357611be2611a78565b5b6000611bf185828601611aa3565b9250506020611c0285828601611aa3565b9150509250929050565b600081519050919050565b600082825260208201905092915050565b60005b83811015611c46578082015181840152602081019050611c2b565b60008484015250505050565b6000601f19601f8301169050919050565b6000611c6e82611c0c565b611c788185611c17565b9350611c88818560208601611c28565b611c9181611c52565b840191505092915050565b611ca581611a82565b82525050565b60006060820190508181036000830152611cc58186611c63565b90508181036020830152611cd98185611c63565b9050611ce86040830184611c9c565b949350505050565b60008115159050919050565b611d0581611cf0565b82525050565b6000610100820190508181036000830152611d26818b611c63565b90508181036020830152611d3a818a611c63565b9050611d496040830189611c9c565b611d566060830188611c9c565b611d636080830187611cfc565b611d7060a0830186611c9c565b611d7d60c0830185611c9c565b611d8a60e0830184611cfc565b9998505050505050505050565b600080fd5b600080fd5b7f4e487b7100000000000000000000000000000000000000000000000000000000600052604160045260246000fd5b611dd982611c52565b810181811067ffffffffffffffff82111715611df857611df7611da1565b5b80604052505050565b6000611e0b611a6e565b9050611e178282611dd0565b919050565b600067ffffffffffffffff821115611e3757611e36611da1565b5b611e4082611c52565b9050602081019050919050565b82818337600083830152505050565b6000611e6f611e6a84611e1c565b611e01565b905082815260208101848484011115611e8b57611e8a611d9c565b5b611e96848285611e4d565b509392505050565b600082601f830112611eb357611eb2611d97565b5b8135611ec3848260208601611e5c565b91505092915050565b60008060008060808587031215611ee657611ee5611a78565b5b600085013567ffffffffffffffff811115611f0457611f03611a7d565b5b611f1087828801611e9e565b945050602085013567ffffffffffffffff811115611f3157611f30611a7d565b5b611f3d87828801611e9e565b9350506040611f4e87828801611aa3565b9250506060611f5f87828801611aa3565b91505092959194509250565b6000602082019050611f806000830184611c9c565b92915050565b60008060408385031215611f9d57611f9c611a78565b5b6000611fab85828601611aa3565b9250506020611fbc85828601611b2e565b9150509250929050565b6000604082019050611fdb6000830185611cfc565b611fe86020830184611cfc565b9392505050565b611ff881611a82565b82525050565b600082825260208201905092915050565b600061201a82611c0c565b6120248185611ffe565b9350612034818560208601611c28565b61203d81611c52565b840191505092915050565b61205181611cf0565b82525050565b6000610120830160008301516120706000860182611fef565b5060208301518482036020860152612088828261200f565b915050604083015184820360408601526120a2828261200f565b91505060608301516120b76060860182611fef565b5060808301516120ca6080860182611fef565b5060a08301516120dd60a0860182612048565b5060c08301516120f060c0860182611fef565b5060e083015161210360e0860182611fef565b50610100830151612118610100860182612048565b508091505092915050565b6000602082019050818103600083015261213d8184612057565b905092915050565b60008060006060848603121561215e5761215d611a78565b5b600061216c86828701611aa3565b935050602084013567ffffffffffffffff81111561218d5761218c611a7d565b5b61219986828701611e9e565b925050604084013567ffffffffffffffff8111156121ba576121b9611a7d565b5b6121c686828701611e9e565b9150509250925092565b600081519050919050565b600082825260208201905092915050565b6000819050602082019050919050565b60006122088383611fef565b60208301905092915050565b6000602082019050919050565b600061222c826121d0565b61223681856121db565b9350612241836121ec565b8060005b8381101561227257815161225988826121fc565b975061226483612214565b925050600181019050612245565b5085935050505092915050565b600060208201905081810360008301526122998184612221565b905092915050565b6122aa81611b05565b82525050565b60006020820190506122c560008301846122a1565b92915050565b7f4f6e6c792061646d696e2063616e20706572666f726d2074686973206163746960008201527f6f6e000000000000000000000000000000000000000000000000000000000000602082015250565b6000612327602283611c17565b9150612332826122cb565b604082019050919050565b600060208201905081810360008301526123568161231a565b9050919050565b7f456c656374696f6e20646f6573206e6f74206578697374000000000000000000600082015250565b6000612393601783611c17565b915061239e8261235d565b602082019050919050565b600060208201905081810360008301526123c281612386565b9050919050565b7f456c656374696f6e207374696c6c206163746976650000000000000000000000600082015250565b60006123ff601583611c17565b915061240a826123c9565b602082019050919050565b6000602082019050818103600083015261242e816123f2565b9050919050565b600060408201905061244a6000830185611c9c565b6124576020830184611c9c565b9392505050565b7f566f74657220616c726561647920726567697374657265640000000000000000600082015250565b6000612494601883611c17565b915061249f8261245e565b602082019050919050565b600060208201905081810360008301526124c381612487565b9050919050565b60006040820190506124df6000830185611c9c565b6124ec60208301846122a1565b9392505050565b7f456c656374696f6e206973206e6f742061637469766500000000000000000000600082015250565b6000612529601683611c17565b9150612534826124f3565b602082019050919050565b600060208201905081810360008301526125588161251c565b9050919050565b7f456c656374696f6e20686173206e6f7420737461727465642079657400000000600082015250565b6000612595601c83611c17565b91506125a08261255f565b602082019050919050565b600060208201905081810360008301526125c481612588565b9050919050565b7f456c656374696f6e2068617320656e6465640000000000000000000000000000600082015250565b6000612601601283611c17565b915061260c826125cb565b602082019050919050565b60006020820190508181036000830152612630816125f4565b9050919050565b7f566f746572206e6f742072656769737465726564000000000000000000000000600082015250565b600061266d601483611c17565b915061267882612637565b602082019050919050565b6000602082019050818103600083015261269c81612660565b9050919050565b7f566f7465722068617320616c726561647920766f746564000000000000000000600082015250565b60006126d9601783611c17565b91506126e4826126a3565b602082019050919050565b60006020820190508181036000830152612708816126cc565b9050919050565b7f496e76616c69642063616e646964617465000000000000000000000000000000600082015250565b6000612745601183611c17565b91506127508261270f565b602082019050919050565b6000602082019050818103600083015261277481612738565b9050919050565b7f4e487b7100000000000000000000000000000000000000000000000000000000600052601160045260246000fd5b60006127b582611a82565b91507fffffffffffffffffffffffffffffffffffffffffffffffffffffffffffffffff82036127e7576127e661277b565b5b600182019050919050565b7f4e487b7100000000000000000000000000000000000000000000000000000000600052602260045260246000fd5b6000600282049050600182168061283957607f821691505b60208210810361284c5761284b6127f2565b5b50919050565b7f53746172742074696d65206d75737420626520696e2074686520667574757265600082015250565b6000612888602083611c17565b915061289382612852565b602082019050919050565b600060208201905081810360008301526128b78161287b565b9050919050565b7f456e642074696d65206d7573742062652061667465722073746172742074696d60008201527f6500000000000000000000000000000000000000000000000000000000000000602082015250565b600061291a602183611c17565b9150612925826128be565b604082019050919050565b600060208201905081810360008301526129498161290d565b9050919050565b60008190508160005260206000209050919050565b60006020601f8301049050919050565b600082821b905092915050565b6000600883026129b27fffffffffffffffffffffffffffffffffffffffffffffffffffffffffffffffff82612975565b6129bc8683612975565b95508019841693508086168417925050509392505050565b6000819050919050565b60006129f96129f46129ef84611a82565b6129d4565b611a82565b9050919050565b6000819050919050565b612a13836129de565b612a27612a1f82612a00565b848454612982565b825550505050565b600090565b612a3c612a2f565b612a47818484612a0a565b505050565b5b81811015612a6b57612a60600082612a34565b600181019050612a4d565b5050565b601f821115612ab057612a8181612950565b612a8a84612965565b81016020851015612a99578190505b612aad612aa585612965565b830182612a4c565b50505b505050565b600082821c905092915050565b6000612ad360001984600802612ab5565b1980831691505092915050565b6000612aec8383612ac2565b9150826002028217905092915050565b612b0582611c0c565b67ffffffffffffffff811115612b1e57612b1d611da1565b5b612b288254612821565b612b33828285612a6f565b600060209050601f831160018114612b665760008415612b54578287015190505b612b5e8582612ae0565b865550612bc6565b601f198416612b7486612950565b60005b82811015612b9c57848901518255600182019150602085019450602081019050612b77565b86831015612bb95784890151612bb5601f891682612ac2565b8355505b6001600288020188555050505b505050505050565b6000608082019050612be36000830187611c9c565b8181036020830152612bf58186611c63565b9050612c046040830185611c9c565b612c116060830184611c9c565b95945050505050565b7f456c656374696f6e20726573756c7473206172652066696e616c697a65640000600082015250565b6000612c50601e83611c17565b9150612c5b82612c1a565b602082019050919050565b60006020820190508181036000830152612c7f81612c43565b9050919050565b7f526573756c7473206e6f7420617661696c61626c652079657400000000000000600082015250565b6000612cbc601983611c17565b9150612cc782612c86565b602082019050919050565b60006020820190508181036000830152612ceb81612caf565b9050919050565b7f4e487b7100000000000000000000000000000000000000000000000000000000600052603260045260246000fdfea26469706673582212205d98cee65774f1b62b8dd2479bdfeeed6d6d7044df0659af21f3096b41db31f264736f6c63430008110033",
  "linkReferences": {},
  "deployedLinkReferences": {}
}